:060000008031B22800006F
:0800080083018A012000770842
:10001000A0007808A1007908A2007A08A300850151
:1000200091308400801E1628911A1F282008F7009E
:100030002108F8002208F9002308FA00090080319D
:1000400025284D283218B11B0000911E25282300B9
:1000500019082000AD002D083F3C031D33282B1844
:1000600033282B144E282D082A3C031D3B282C082E
:10007000083C031C46280E302C07840020308500E5
:100080000318850A2D088000AC0A4E283108111E7D
:10009000472823009A002000AC012B1091128031D8
:1000A0001628C0308B04210091160C1022000C1071
:1000B00021008C1022008C1021000C1122000C1148
:1000C000213023009100003092000B082000B7007F
:1000D0008B132300951715140000000013087F39B7
:1000E0000319AD282000B800230011082000B90032
:1000F000230012082000BA003808111E7D282300B2
:100100009A00200039082300910020003A082300BB
:1001100092009517151400000000130D140D7F397F
:100120000319AD282000B800230011082000B900F1
:10013000230012082000BA003808111E9D28230051
:100140009A00200039082300910020003A0823007B
:100150009200910A0319920A6A282000B71B8B1794
:100160008031D328850184017230210099000C3040
:1001700023009B00A2309E0090309D0020002B1099
:10018000AC012F0091019201980199019A0123007D
:100190008C018D018F019001220092019101940147
:0A01A000930120005128D3286300CA
:020000040001F9
:04000E008439FF1E14
:00000001FF
;PIC16F1937
;CRC=2D9B  CREATED="27-ene.-17 23:13"
