:060000008031CC2A000053
:0800080083018A012000770842
:10001000A0007808A1007908A2007A08A300850151
:1000200091308400801E1628911A1F282008F7009E
:100030002108F8002208F9002308FA00090080319D
:100040003E288E30F7004308F8004208F900FA0114
:10005000F808031D35287908F800F9010830F7027F
:10006000F808031D3528F7013D280310F81B3C282C
:10007000F90DF80DF7033528F8130800911E3E28F6
:10008000230019082000A8002808243C031953283D
:100090000A302D078400203085000318850A2808BF
:1000A0008000AD0A462AAD0130302A02AE00303061
:1000B0002B02AF00C3012E08C20021207A08C10024
:1000C0007908C0007808BF007708BE00C501C401E8
:1000D0002030C3008230C2003E080319DC28C6006D
:1000E00042080319DC28C60703187D287F30C602A2
:1000F000031CDC280319DC2881288130C60703187B
:10010000DC284608F700F801F901FA013F08CA00A7
:10011000CA174008C9004108C8001830C600C70106
:10012000481CAA284508FA07031C9C28F90A031D45
:100130009C28F80A0319C7174408F907031CA328C9
:10014000F80A0319C7174308C000C0174008F8078A
:100150000318C717C70DF80CF90CFA0CCA0CC90C18
:10016000C80C0310C60B8F280130F7070318DC28D2
:10017000F81BC128CA0DFA0DF90DF80DF703031984
:10018000DC28CA1FD228FA0A031DD228F90A031D47
:10019000D228F80A031DD228F80CF90CFA0CF70A39
:1001A0000319DC283F08C7004308C706C71FDA2821
:1001B000F817E028F813E028F701F801F901FA012F
:1001C0007708BE007808BF007908C0007A08C1002F
:1001D000C3012F08C200212083104108C500400838
:1001E000C4003F08C3003E08C2007A08C90079086D
:1001F000C8007808C7007708C60080308318C70693
:10020000CC01CD014308CB004708CB0642080319B7
:10021000F029CA00F70046080319F929CA02031990
:100220009429031C51294708D000D0174808CF0053
:100230004908CE00CD010310D00CCF0CCE0CCD0C54
:10024000CA0B1A29CB1F27294C140D2A4C104A100F
:100250004C162030850025308400222A4C12CB1BFE
:100260003B294A1C4629D00CCF0CCE0CCD0CF70AEA
:100270000319082A4629D01B49290310CD0DCE0D9C
:10028000CF0DD00DF7030319082A3B294C17B529C8
:100290004C134308CB00CB1F4F29D017012AD01392
:1002A000012A4608CA00F7004208CA024308D000E3
:1002B000D0174408CF004508CE00CD010310D00C64
:1002C000CF0CCE0CCD0CCA0B5D29CB1F6A29CC14E8
:1002D0000D2ACC104A10CC1620308500293084001D
:1002E000222ACC12CB1B7E294A1C8929D00CCF0C88
:1002F000CE0CCD0CF70A0319082A8929D01B8C29AA
:100300000310CD0DCE0DCF0DD00DF7030319082A24
:100310007E29CC17B529CC134708CB00CB1F9229D7
:10032000D017012AD013012A4708D000D017480857
:10033000CF004908CE00CB1FA129D0134C150D2AA0
:100340004C11CD014A102030850025308400222A2E
:10035000CB1BCB294308CB004A1CB529D00CCF0CB2
:10036000CE0CCD0CF70A0319082ACD1FC629CE0AD8
:10037000031DC629CF0A031DC629D00A031DC6299D
:10038000D00CCF0CCE0CF70A0319082A4C1B4829B5
:10039000CC1B8B29EA298030D006D01FD3290D2A07
:1003A0004708CB00E0294308CB00D008031DE02913
:1003B000CF08031DE029CE08031DE029F701012A1B
:1003C000D01BEA290310CD0DCE0DCF0DD00DF70BAC
:1003D000E029082ACB1FEE29D017012AD013012AC1
:1003E0004608F7004708D0004808CF004908CE006B
:1003F000012A4208F7004308D0004408CF0045080E
:10040000CE005008F8004F08F9004E08FA003E2AC6
:10041000F701F801F901FA013E2ACD01CE09CF0911
:10042000D009CD09CD0A031D1B2ACE0A031D1B2AA4
:10043000CF0A0319D00A4C182629CC1869294C195F
:10044000A029D0290008CE07031C2C2ACF0A031D9F
:100450002C2AD00A03194A141100CF07031C332A8F
:10046000D00A03194A141100801F803AD0070318DC
:100470004A144C1A2E29CC1A7129A8297A08A700E7
:100480007908A6007808A5007708A40091128031A9
:100490001628EF35A0376B10EF35A0376B10EF350E
:1004A000A0376B10EF35A0376B10EF35A0376B100E
:1004B000EF350000C0308B04210091160130200080
:1004C000BA003A08043C031C6E2ABB013B08073CF7
:1004D000031C6C2ABB0A662ABA0A612A21000C1086
:1004E00022000C1021008C1022008C1021000C1115
:1004F00022000C11493023009100023092000B08B9
:100500002000BA008B13230095171514000000007B
:1005100013087F390319C72A2000BB0023001108E4
:100520002000BC00230012082000BD003B08111E63
:10053000972A23009A0020003C0823009100200005
:100540003D08230092009517151400000000130DBC
:10055000140D7F390319C72A2000BB00230011089E
:100560002000BC00230012082000BD003B08111E23
:10057000B72A23009A0020003C08230091002000A5
:100580003D0823009200910A0319920A842A200050
:10059000BA1B8B178031FF2A85018401723021003C
:1005A00099000C3023009B00A2309E0090309D00EB
:1005B0002000AD012F0091019201980199019A014B
:1005C00023008C018D018F01900122009201910185
:1005D000940193010D302000B0000C30B100453083
:1005E000B2000430B3000830B4001030B500203041
:1005F000B6004030B7007F30B800B9015A2AFF2A50
:02060000630095
:020000040001F9
:04000E008439FF1E14
:00000001FF
;PIC16F1937
;CRC=8F5B  CREATED="25-ene.-17 19:30"
